{
  "_format": "hh-sol-artifact-1",
  "contractName": "MyEpicNFT",
  "sourceName": "contracts/MyEpicNFT.sol",
  "abi": [
    {
      "inputs": [],
      "stateMutability": "nonpayable",
      "type": "constructor"
    },
    {
      "anonymous": false,
      "inputs": [
        {
          "indexed": true,
          "internalType": "address",
          "name": "owner",
          "type": "address"
        },
        {
          "indexed": true,
          "internalType": "address",
          "name": "approved",
          "type": "address"
        },
        {
          "indexed": true,
          "internalType": "uint256",
          "name": "tokenId",
          "type": "uint256"
        }
      ],
      "name": "Approval",
      "type": "event"
    },
    {
      "anonymous": false,
      "inputs": [
        {
          "indexed": true,
          "internalType": "address",
          "name": "owner",
          "type": "address"
        },
        {
          "indexed": true,
          "internalType": "address",
          "name": "operator",
          "type": "address"
        },
        {
          "indexed": false,
          "internalType": "bool",
          "name": "approved",
          "type": "bool"
        }
      ],
      "name": "ApprovalForAll",
      "type": "event"
    },
    {
      "anonymous": false,
      "inputs": [
        {
          "indexed": false,
          "internalType": "address",
          "name": "sender",
          "type": "address"
        },
        {
          "indexed": false,
          "internalType": "uint256",
          "name": "tokenId",
          "type": "uint256"
        },
        {
          "indexed": false,
          "internalType": "uint256",
          "name": "totalNFTsMinted",
          "type": "uint256"
        }
      ],
      "name": "NewEpicNFTMinted",
      "type": "event"
    },
    {
      "anonymous": false,
      "inputs": [
        {
          "indexed": true,
          "internalType": "address",
          "name": "from",
          "type": "address"
        },
        {
          "indexed": true,
          "internalType": "address",
          "name": "to",
          "type": "address"
        },
        {
          "indexed": true,
          "internalType": "uint256",
          "name": "tokenId",
          "type": "uint256"
        }
      ],
      "name": "Transfer",
      "type": "event"
    },
    {
      "inputs": [
        {
          "internalType": "address",
          "name": "to",
          "type": "address"
        },
        {
          "internalType": "uint256",
          "name": "tokenId",
          "type": "uint256"
        }
      ],
      "name": "approve",
      "outputs": [],
      "stateMutability": "nonpayable",
      "type": "function"
    },
    {
      "inputs": [
        {
          "internalType": "address",
          "name": "owner",
          "type": "address"
        }
      ],
      "name": "balanceOf",
      "outputs": [
        {
          "internalType": "uint256",
          "name": "",
          "type": "uint256"
        }
      ],
      "stateMutability": "view",
      "type": "function"
    },
    {
      "inputs": [
        {
          "internalType": "uint256",
          "name": "tokenId",
          "type": "uint256"
        }
      ],
      "name": "getApproved",
      "outputs": [
        {
          "internalType": "address",
          "name": "",
          "type": "address"
        }
      ],
      "stateMutability": "view",
      "type": "function"
    },
    {
      "inputs": [],
      "name": "getTotalNFTsMinted",
      "outputs": [
        {
          "internalType": "uint256",
          "name": "",
          "type": "uint256"
        }
      ],
      "stateMutability": "view",
      "type": "function"
    },
    {
      "inputs": [
        {
          "internalType": "address",
          "name": "owner",
          "type": "address"
        },
        {
          "internalType": "address",
          "name": "operator",
          "type": "address"
        }
      ],
      "name": "isApprovedForAll",
      "outputs": [
        {
          "internalType": "bool",
          "name": "",
          "type": "bool"
        }
      ],
      "stateMutability": "view",
      "type": "function"
    },
    {
      "inputs": [],
      "name": "makeEpicNFT",
      "outputs": [],
      "stateMutability": "nonpayable",
      "type": "function"
    },
    {
      "inputs": [],
      "name": "name",
      "outputs": [
        {
          "internalType": "string",
          "name": "",
          "type": "string"
        }
      ],
      "stateMutability": "view",
      "type": "function"
    },
    {
      "inputs": [
        {
          "internalType": "uint256",
          "name": "tokenId",
          "type": "uint256"
        }
      ],
      "name": "ownerOf",
      "outputs": [
        {
          "internalType": "address",
          "name": "",
          "type": "address"
        }
      ],
      "stateMutability": "view",
      "type": "function"
    },
    {
      "inputs": [
        {
          "internalType": "uint256",
          "name": "tokenId",
          "type": "uint256"
        }
      ],
      "name": "pickRandomFirstWord",
      "outputs": [
        {
          "internalType": "string",
          "name": "",
          "type": "string"
        }
      ],
      "stateMutability": "view",
      "type": "function"
    },
    {
      "inputs": [
        {
          "internalType": "uint256",
          "name": "tokenId",
          "type": "uint256"
        }
      ],
      "name": "pickRandomSecondWord",
      "outputs": [
        {
          "internalType": "string",
          "name": "",
          "type": "string"
        }
      ],
      "stateMutability": "view",
      "type": "function"
    },
    {
      "inputs": [
        {
          "internalType": "uint256",
          "name": "tokenId",
          "type": "uint256"
        }
      ],
      "name": "pickRandomThirdWord",
      "outputs": [
        {
          "internalType": "string",
          "name": "",
          "type": "string"
        }
      ],
      "stateMutability": "view",
      "type": "function"
    },
    {
      "inputs": [
        {
          "internalType": "address",
          "name": "from",
          "type": "address"
        },
        {
          "internalType": "address",
          "name": "to",
          "type": "address"
        },
        {
          "internalType": "uint256",
          "name": "tokenId",
          "type": "uint256"
        }
      ],
      "name": "safeTransferFrom",
      "outputs": [],
      "stateMutability": "nonpayable",
      "type": "function"
    },
    {
      "inputs": [
        {
          "internalType": "address",
          "name": "from",
          "type": "address"
        },
        {
          "internalType": "address",
          "name": "to",
          "type": "address"
        },
        {
          "internalType": "uint256",
          "name": "tokenId",
          "type": "uint256"
        },
        {
          "internalType": "bytes",
          "name": "_data",
          "type": "bytes"
        }
      ],
      "name": "safeTransferFrom",
      "outputs": [],
      "stateMutability": "nonpayable",
      "type": "function"
    },
    {
      "inputs": [
        {
          "internalType": "address",
          "name": "operator",
          "type": "address"
        },
        {
          "internalType": "bool",
          "name": "approved",
          "type": "bool"
        }
      ],
      "name": "setApprovalForAll",
      "outputs": [],
      "stateMutability": "nonpayable",
      "type": "function"
    },
    {
      "inputs": [
        {
          "internalType": "bytes4",
          "name": "interfaceId",
          "type": "bytes4"
        }
      ],
      "name": "supportsInterface",
      "outputs": [
        {
          "internalType": "bool",
          "name": "",
          "type": "bool"
        }
      ],
      "stateMutability": "view",
      "type": "function"
    },
    {
      "inputs": [],
      "name": "symbol",
      "outputs": [
        {
          "internalType": "string",
          "name": "",
          "type": "string"
        }
      ],
      "stateMutability": "view",
      "type": "function"
    },
    {
      "inputs": [
        {
          "internalType": "uint256",
          "name": "tokenId",
          "type": "uint256"
        }
      ],
      "name": "tokenURI",
      "outputs": [
        {
          "internalType": "string",
          "name": "",
          "type": "string"
        }
      ],
      "stateMutability": "view",
      "type": "function"
    },
    {
      "inputs": [
        {
          "internalType": "address",
          "name": "from",
          "type": "address"
        },
        {
          "internalType": "address",
          "name": "to",
          "type": "address"
        },
        {
          "internalType": "uint256",
          "name": "tokenId",
          "type": "uint256"
        }
      ],
      "name": "transferFrom",
      "outputs": [],
      "stateMutability": "nonpayable",
      "type": "function"
    }
  ],
  "bytecode": "0x608060405260405180610160016040528061012f81526020016200471461012f9139600990805190602001906200003892919062000945565b506040518061014001604052806040518060400160405280600681526020017f6566666c7578000000000000000000000000000000000000000000000000000081525081526020016040518060400160405280600881526020017f636f6e677265737300000000000000000000000000000000000000000000000081525081526020016040518060400160405280600481526020017f706f75720000000000000000000000000000000000000000000000000000000081525081526020016040518060400160405280600681526020017f637265646974000000000000000000000000000000000000000000000000000081525081526020016040518060400160405280600781526020017f63757474696e670000000000000000000000000000000000000000000000000081525081526020016040518060400160405280600981526020017f657865637574726978000000000000000000000000000000000000000000000081525081526020016040518060400160405280600781526020017f626172726965720000000000000000000000000000000000000000000000000081525081526020016040518060400160405280600a81526020017f756e6465727374616e640000000000000000000000000000000000000000000081525081526020016040518060400160405280600881526020017f63756c747572616c00000000000000000000000000000000000000000000000081525081526020016040518060400160405280600481526020017f6461726500000000000000000000000000000000000000000000000000000000815250815250600a90600a620002a3929190620009d6565b506040518061014001604052806040518060400160405280600481526020017f636172640000000000000000000000000000000000000000000000000000000081525081526020016040518060400160405280600681526020017f61646a757374000000000000000000000000000000000000000000000000000081525081526020016040518060400160405280600881526020017f617070656e64697800000000000000000000000000000000000000000000000081525081526020016040518060400160405280600581526020017f6a6f696e7400000000000000000000000000000000000000000000000000000081525081526020016040518060400160405280600981526020017f636f6e667573696f6e000000000000000000000000000000000000000000000081525081526020016040518060400160405280600c81526020017f616e6e6f756e63656d656e74000000000000000000000000000000000000000081525081526020016040518060400160405280600681526020017f726f636b6574000000000000000000000000000000000000000000000000000081525081526020016040518060400160405280600981526020017f7265696e666f726365000000000000000000000000000000000000000000000081525081526020016040518060400160405280600881526020017f626972746864617900000000000000000000000000000000000000000000000081525081526020016040518060400160405280600381526020017f7369700000000000000000000000000000000000000000000000000000000000815250815250600b90600a6200050e929190620009d6565b506040518061014001604052806040518060400160405280600881526020017f636f6e747261727900000000000000000000000000000000000000000000000081525081526020016040518060400160405280600a81526020017f72656c696e71756973680000000000000000000000000000000000000000000081525081526020016040518060400160405280600781526020017f6665656c696e670000000000000000000000000000000000000000000000000081525081526020016040518060400160405280600b81526020017f726573706f6e7369626c6500000000000000000000000000000000000000000081525081526020016040518060400160405280600481526020017f62616e640000000000000000000000000000000000000000000000000000000081525081526020016040518060400160405280600481526020017f7365656b0000000000000000000000000000000000000000000000000000000081525081526020016040518060400160405280600481526020017f74656e740000000000000000000000000000000000000000000000000000000081525081526020016040518060400160405280600481526020017f636167650000000000000000000000000000000000000000000000000000000081525081526020016040518060400160405280600581526020017f626c696e6400000000000000000000000000000000000000000000000000000081525081526020016040518060400160405280600781526020017f7468696e6b657200000000000000000000000000000000000000000000000000815250815250600c90600a62000779929190620009d6565b503480156200078757600080fd5b506040518060400160405280600981526020017f5371756172654e465400000000000000000000000000000000000000000000008152506040518060400160405280600681526020017f535155415245000000000000000000000000000000000000000000000000000081525081600090805190602001906200080c92919062000945565b5080600190805190602001906200082592919062000945565b505050620008736040518060400160405280601c81526020017f54686973206973206d79204e465420436f6e74726163742e20596179000000008152506200087960201b620011551760201c565b62000bf7565b620009198160405160240162000890919062000b0b565b6040516020818303038152906040527f41304fac000000000000000000000000000000000000000000000000000000007bffffffffffffffffffffffffffffffffffffffffffffffffffffffff19166020820180517bffffffffffffffffffffffffffffffffffffffffffffffffffffffff83818316178352505050506200091c60201b60201c565b50565b60008151905060006a636f6e736f6c652e6c6f679050602083016000808483855afa5050505050565b828054620009539062000b81565b90600052602060002090601f016020900481019282620009775760008555620009c3565b82601f106200099257805160ff1916838001178555620009c3565b82800160010185558215620009c3579182015b82811115620009c2578251825591602001919060010190620009a5565b5b509050620009d2919062000a3d565b5090565b82805482825590600052602060002090810192821562000a2a579160200282015b8281111562000a2957825182908051906020019062000a1892919062000945565b5091602001919060010190620009f7565b5b50905062000a39919062000a5c565b5090565b5b8082111562000a5857600081600090555060010162000a3e565b5090565b5b8082111562000a80576000818162000a76919062000a84565b5060010162000a5d565b5090565b50805462000a929062000b81565b6000825580601f1062000aa6575062000ac7565b601f01602090049060005260206000209081019062000ac6919062000a3d565b5b50565b600062000ad78262000b2f565b62000ae3818562000b3a565b935062000af581856020860162000b4b565b62000b008162000be6565b840191505092915050565b6000602082019050818103600083015262000b27818462000aca565b905092915050565b600081519050919050565b600082825260208201905092915050565b60005b8381101562000b6b57808201518184015260208101905062000b4e565b8381111562000b7b576000848401525b50505050565b6000600282049050600182168062000b9a57607f821691505b6020821081141562000bb15762000bb062000bb7565b5b50919050565b7f4e487b7100000000000000000000000000000000000000000000000000000000600052602260045260246000fd5b6000601f19601f8301169050919050565b613b0d8062000c076000396000f3fe608060405234801561001057600080fd5b50600436106101165760003560e01c806370a08231116100a2578063b4c3b8be11610071578063b4c3b8be146102f1578063b88d4fde1461030f578063c575757a1461032b578063c87b56dd1461035b578063e985e9c51461038b57610116565b806370a082311461025757806395d89b4114610287578063a22cb465146102a5578063b187301f146102c157610116565b806323b872dd116100e957806323b872dd146101b55780632de38d68146101d157806342842e0e1461020157806362b41f491461021d5780636352211e1461022757610116565b806301ffc9a71461011b57806306fdde031461014b578063081812fc14610169578063095ea7b314610199575b600080fd5b61013560048036038101906101309190612555565b6103bb565b6040516101429190612c90565b60405180910390f35b61015361049d565b6040516101609190612cab565b60405180910390f35b610183600480360381019061017e91906125a7565b61052f565b6040516101909190612bf2565b60405180910390f35b6101b360048036038101906101ae9190612519565b6105b4565b005b6101cf60048036038101906101ca9190612413565b6106cc565b005b6101eb60048036038101906101e691906125a7565b61072c565b6040516101f89190612cab565b60405180910390f35b61021b60048036038101906102169190612413565b61084a565b005b61022561086a565b005b610241600480360381019061023c91906125a7565b610ab5565b60405161024e9190612bf2565b60405180910390f35b610271600480360381019061026c91906123ae565b610b67565b60405161027e9190612f2b565b60405180910390f35b61028f610c1f565b60405161029c9190612cab565b60405180910390f35b6102bf60048036038101906102ba91906124dd565b610cb1565b005b6102db60048036038101906102d691906125a7565b610cc7565b6040516102e89190612cab565b60405180910390f35b6102f9610de5565b6040516103069190612f2b565b60405180910390f35b61032960048036038101906103249190612462565b610def565b005b610345600480360381019061034091906125a7565b610e51565b6040516103529190612cab565b60405180910390f35b610375600480360381019061037091906125a7565b610f6f565b6040516103829190612cab565b60405180910390f35b6103a560048036038101906103a091906123d7565b6110c1565b6040516103b29190612c90565b60405180910390f35b60007f80ac58cd000000000000000000000000000000000000000000000000000000007bffffffffffffffffffffffffffffffffffffffffffffffffffffffff1916827bffffffffffffffffffffffffffffffffffffffffffffffffffffffff1916148061048657507f5b5e139f000000000000000000000000000000000000000000000000000000007bffffffffffffffffffffffffffffffffffffffffffffffffffffffff1916827bffffffffffffffffffffffffffffffffffffffffffffffffffffffff1916145b806104965750610495826111ee565b5b9050919050565b6060600080546104ac906131bf565b80601f01602080910402602001604051908101604052809291908181526020018280546104d8906131bf565b80156105255780601f106104fa57610100808354040283529160200191610525565b820191906000526020600020905b81548152906001019060200180831161050857829003601f168201915b5050505050905090565b600061053a82611258565b610579576040517f08c379a000000000000000000000000000000000000000000000000000000000815260040161057090612e6b565b60405180910390fd5b6004600083815260200190815260200160002060009054906101000a900473ffffffffffffffffffffffffffffffffffffffff169050919050565b60006105bf82610ab5565b90508073ffffffffffffffffffffffffffffffffffffffff168373ffffffffffffffffffffffffffffffffffffffff161415610630576040517f08c379a000000000000000000000000000000000000000000000000000000000815260040161062790612ecb565b60405180910390fd5b8073ffffffffffffffffffffffffffffffffffffffff1661064f6112c4565b73ffffffffffffffffffffffffffffffffffffffff16148061067e575061067d816106786112c4565b6110c1565b5b6106bd576040517f08c379a00000000000000000000000000000000000000000000000000000000081526004016106b490612dab565b60405180910390fd5b6106c783836112cc565b505050565b6106dd6106d76112c4565b82611385565b61071c576040517f08c379a000000000000000000000000000000000000000000000000000000000815260040161071390612f0b565b60405180910390fd5b610727838383611463565b505050565b6060600061076061073c846116bf565b60405160200161074c9190612b25565b60405160208183030381529060405261186c565b9050600a8054905081610773919061326b565b9050600a81815481106107af577f4e487b7100000000000000000000000000000000000000000000000000000000600052603260045260246000fd5b9060005260206000200180546107c4906131bf565b80601f01602080910402602001604051908101604052809291908181526020018280546107f0906131bf565b801561083d5780601f106108125761010080835404028352916020019161083d565b820191906000526020600020905b81548152906001019060200180831161082057829003601f168201915b5050505050915050919050565b61086583838360405180602001604052806000815250610def565b505050565b603260085411156108b0576040517f08c379a00000000000000000000000000000000000000000000000000000000081526004016108a790612eeb565b60405180910390fd5b60006108bc600761189f565b905060006108c98261072c565b905060006108d683610cc7565b905060006108e384610e51565b905060008383836040516020016108fc93929190612ac5565b60405160208183030381529060405290506000600982604051602001610923929190612af6565b6040516020818303038152906040529050600061096883610943846118ad565b604051602001610954929190612b69565b6040516020818303038152906040526118ad565b905060008160405160200161097d9190612bae565b60405160208183030381529060405290506109cc6040518060400160405280601581526020017f0a2d2d2d2d2d2d2d2d2d2d2d2d2d2d2d2d2d2d2d2d0000000000000000000000815250611155565b6109d581611155565b610a136040518060400160405280601581526020017f2d2d2d2d2d2d2d2d2d2d2d2d2d2d2d2d2d2d2d2d0a0000000000000000000000815250611155565b610a1d3389611a6b565b610a278882611a89565b610a4a604051806060016040528060258152602001613a73602591398933611afd565b610a546007611b9c565b600160086000828254610a679190612ff4565b925050819055507f9e9e101732de0887d722bd72c01c5439edc857c9c2c763953d67e66de12441d33389600854604051610aa393929190612c59565b60405180910390a15050505050505050565b6000806002600084815260200190815260200160002060009054906101000a900473ffffffffffffffffffffffffffffffffffffffff169050600073ffffffffffffffffffffffffffffffffffffffff168173ffffffffffffffffffffffffffffffffffffffff161415610b5e576040517f08c379a0000000000000000000000000000000000000000000000000000000008152600401610b5590612deb565b60405180910390fd5b80915050919050565b60008073ffffffffffffffffffffffffffffffffffffffff168273ffffffffffffffffffffffffffffffffffffffff161415610bd8576040517f08c379a0000000000000000000000000000000000000000000000000000000008152600401610bcf90612dcb565b60405180910390fd5b600360008373ffffffffffffffffffffffffffffffffffffffff1673ffffffffffffffffffffffffffffffffffffffff168152602001908152602001600020549050919050565b606060018054610c2e906131bf565b80601f0160208091040260200160405190810160405280929190818152602001828054610c5a906131bf565b8015610ca75780601f10610c7c57610100808354040283529160200191610ca7565b820191906000526020600020905b815481529060010190602001808311610c8a57829003601f168201915b5050505050905090565b610cc3610cbc6112c4565b8383611bb2565b5050565b60606000610cfb610cd7846116bf565b604051602001610ce79190612bd0565b60405160208183030381529060405261186c565b9050600b8054905081610d0e919061326b565b9050600b8181548110610d4a577f4e487b7100000000000000000000000000000000000000000000000000000000600052603260045260246000fd5b906000526020600020018054610d5f906131bf565b80601f0160208091040260200160405190810160405280929190818152602001828054610d8b906131bf565b8015610dd85780601f10610dad57610100808354040283529160200191610dd8565b820191906000526020600020905b815481529060010190602001808311610dbb57829003601f168201915b5050505050915050919050565b6000600854905090565b610e00610dfa6112c4565b83611385565b610e3f576040517f08c379a0000000000000000000000000000000000000000000000000000000008152600401610e3690612f0b565b60405180910390fd5b610e4b84848484611d1f565b50505050565b60606000610e85610e61846116bf565b604051602001610e719190612b47565b60405160208183030381529060405261186c565b9050600c8054905081610e98919061326b565b9050600c8181548110610ed4577f4e487b7100000000000000000000000000000000000000000000000000000000600052603260045260246000fd5b906000526020600020018054610ee9906131bf565b80601f0160208091040260200160405190810160405280929190818152602001828054610f15906131bf565b8015610f625780601f10610f3757610100808354040283529160200191610f62565b820191906000526020600020905b815481529060010190602001808311610f4557829003601f168201915b5050505050915050919050565b6060610f7a82611258565b610fb9576040517f08c379a0000000000000000000000000000000000000000000000000000000008152600401610fb090612e4b565b60405180910390fd5b6000600660008481526020019081526020016000208054610fd9906131bf565b80601f0160208091040260200160405190810160405280929190818152602001828054611005906131bf565b80156110525780601f1061102757610100808354040283529160200191611052565b820191906000526020600020905b81548152906001019060200180831161103557829003601f168201915b505050505090506000611063611d7b565b90506000815114156110795781925050506110bc565b6000825111156110ae578082604051602001611096929190612aa1565b604051602081830303815290604052925050506110bc565b6110b784611d92565b925050505b919050565b6000600560008473ffffffffffffffffffffffffffffffffffffffff1673ffffffffffffffffffffffffffffffffffffffff16815260200190815260200160002060008373ffffffffffffffffffffffffffffffffffffffff1673ffffffffffffffffffffffffffffffffffffffff16815260200190815260200160002060009054906101000a900460ff16905092915050565b6111eb816040516024016111699190612cab565b6040516020818303038152906040527f41304fac000000000000000000000000000000000000000000000000000000007bffffffffffffffffffffffffffffffffffffffffffffffffffffffff19166020820180517bffffffffffffffffffffffffffffffffffffffffffffffffffffffff8381831617835250505050611e39565b50565b60007f01ffc9a7000000000000000000000000000000000000000000000000000000007bffffffffffffffffffffffffffffffffffffffffffffffffffffffff1916827bffffffffffffffffffffffffffffffffffffffffffffffffffffffff1916149050919050565b60008073ffffffffffffffffffffffffffffffffffffffff166002600084815260200190815260200160002060009054906101000a900473ffffffffffffffffffffffffffffffffffffffff1673ffffffffffffffffffffffffffffffffffffffff1614159050919050565b600033905090565b816004600083815260200190815260200160002060006101000a81548173ffffffffffffffffffffffffffffffffffffffff021916908373ffffffffffffffffffffffffffffffffffffffff160217905550808273ffffffffffffffffffffffffffffffffffffffff1661133f83610ab5565b73ffffffffffffffffffffffffffffffffffffffff167f8c5be1e5ebec7d5bd14f71427d1e84f3dd0314c0f7b2291e5b200ac8c7c3b92560405160405180910390a45050565b600061139082611258565b6113cf576040517f08c379a00000000000000000000000000000000000000000000000000000000081526004016113c690612d8b565b60405180910390fd5b60006113da83610ab5565b90508073ffffffffffffffffffffffffffffffffffffffff168473ffffffffffffffffffffffffffffffffffffffff16148061144957508373ffffffffffffffffffffffffffffffffffffffff166114318461052f565b73ffffffffffffffffffffffffffffffffffffffff16145b8061145a575061145981856110c1565b5b91505092915050565b8273ffffffffffffffffffffffffffffffffffffffff1661148382610ab5565b73ffffffffffffffffffffffffffffffffffffffff16146114d9576040517f08c379a00000000000000000000000000000000000000000000000000000000081526004016114d090612e8b565b60405180910390fd5b600073ffffffffffffffffffffffffffffffffffffffff168273ffffffffffffffffffffffffffffffffffffffff161415611549576040517f08c379a000000000000000000000000000000000000000000000000000000000815260040161154090612d4b565b60405180910390fd5b611554838383611e62565b61155f6000826112cc565b6001600360008573ffffffffffffffffffffffffffffffffffffffff1673ffffffffffffffffffffffffffffffffffffffff16815260200190815260200160002060008282546115af91906130d5565b925050819055506001600360008473ffffffffffffffffffffffffffffffffffffffff1673ffffffffffffffffffffffffffffffffffffffff16815260200190815260200160002060008282546116069190612ff4565b92505081905550816002600083815260200190815260200160002060006101000a81548173ffffffffffffffffffffffffffffffffffffffff021916908373ffffffffffffffffffffffffffffffffffffffff160217905550808273ffffffffffffffffffffffffffffffffffffffff168473ffffffffffffffffffffffffffffffffffffffff167fddf252ad1be2c89b69c2b068fc378daa952ba7f163c4a11628f55a4df523b3ef60405160405180910390a4505050565b60606000821415611707576040518060400160405280600181526020017f30000000000000000000000000000000000000000000000000000000000000008152509050611867565b600082905060005b6000821461173957808061172290613222565b915050600a82611732919061304a565b915061170f565b60008167ffffffffffffffff81111561177b577f4e487b7100000000000000000000000000000000000000000000000000000000600052604160045260246000fd5b6040519080825280601f01601f1916602001820160405280156117ad5781602001600182028036833780820191505090505b5090505b60008514611860576001826117c691906130d5565b9150600a856117d5919061326b565b60306117e19190612ff4565b60f81b81838151811061181d577f4e487b7100000000000000000000000000000000000000000000000000000000600052603260045260246000fd5b60200101907effffffffffffffffffffffffffffffffffffffffffffffffffffffffffffff1916908160001a905350600a85611859919061304a565b94506117b1565b8093505050505b919050565b60008160405160200161187f9190612a8a565b6040516020818303038152906040528051906020012060001c9050919050565b600081600001549050919050565b606060008251905060008114156118d65760405180602001604052806000815250915050611a66565b600060036002836118e79190612ff4565b6118f1919061304a565b60046118fd919061307b565b9050600060208261190e9190612ff4565b67ffffffffffffffff81111561194d577f4e487b7100000000000000000000000000000000000000000000000000000000600052604160045260246000fd5b6040519080825280601f01601f19166020018201604052801561197f5781602001600182028036833780820191505090505b5090506000604051806060016040528060408152602001613a98604091399050600181016020830160005b86811015611a235760038101905062ffffff818a015116603f8160121c168401518060081b905060ff603f83600c1c1686015116810190508060081b905060ff603f8360061c1686015116810190508060081b905060ff603f831686015116810190508060e01b905080845260048401935050506119aa565b506003860660018114611a3d5760028114611a4d57611a58565b613d3d60f01b6002830352611a58565b603d60f81b60018303525b508484525050819450505050505b919050565b611a85828260405180602001604052806000815250611e67565b5050565b611a9282611258565b611ad1576040517f08c379a0000000000000000000000000000000000000000000000000000000008152600401611ac890612e0b565b60405180910390fd5b80600660008481526020019081526020016000209080519060200190611af892919061223a565b505050565b611b97838383604051602401611b1593929190612ccd565b6040516020818303038152906040527fe3849f79000000000000000000000000000000000000000000000000000000007bffffffffffffffffffffffffffffffffffffffffffffffffffffffff19166020820180517bffffffffffffffffffffffffffffffffffffffffffffffffffffffff8381831617835250505050611e39565b505050565b6001816000016000828254019250508190555050565b8173ffffffffffffffffffffffffffffffffffffffff168373ffffffffffffffffffffffffffffffffffffffff161415611c21576040517f08c379a0000000000000000000000000000000000000000000000000000000008152600401611c1890612d6b565b60405180910390fd5b80600560008573ffffffffffffffffffffffffffffffffffffffff1673ffffffffffffffffffffffffffffffffffffffff16815260200190815260200160002060008473ffffffffffffffffffffffffffffffffffffffff1673ffffffffffffffffffffffffffffffffffffffff16815260200190815260200160002060006101000a81548160ff0219169083151502179055508173ffffffffffffffffffffffffffffffffffffffff168373ffffffffffffffffffffffffffffffffffffffff167f17307eab39ab6107e8899845ad3d59bd9653f200f220920489ca2b5937696c3183604051611d129190612c90565b60405180910390a3505050565b611d2a848484611463565b611d3684848484611ec2565b611d75576040517f08c379a0000000000000000000000000000000000000000000000000000000008152600401611d6c90612d0b565b60405180910390fd5b50505050565b606060405180602001604052806000815250905090565b6060611d9d82611258565b611ddc576040517f08c379a0000000000000000000000000000000000000000000000000000000008152600401611dd390612eab565b60405180910390fd5b6000611de6611d7b565b90506000815111611e065760405180602001604052806000815250611e31565b80611e10846116bf565b604051602001611e21929190612aa1565b6040516020818303038152906040525b915050919050565b60008151905060006a636f6e736f6c652e6c6f679050602083016000808483855afa5050505050565b505050565b611e718383612059565b611e7e6000848484611ec2565b611ebd576040517f08c379a0000000000000000000000000000000000000000000000000000000008152600401611eb490612d0b565b60405180910390fd5b505050565b6000611ee38473ffffffffffffffffffffffffffffffffffffffff16612227565b1561204c578373ffffffffffffffffffffffffffffffffffffffff1663150b7a02611f0c6112c4565b8786866040518563ffffffff1660e01b8152600401611f2e9493929190612c0d565b602060405180830381600087803b158015611f4857600080fd5b505af1925050508015611f7957506040513d601f19601f82011682018060405250810190611f76919061257e565b60015b611ffc573d8060008114611fa9576040519150601f19603f3d011682016040523d82523d6000602084013e611fae565b606091505b50600081511415611ff4576040517f08c379a0000000000000000000000000000000000000000000000000000000008152600401611feb90612d0b565b60405180910390fd5b805181602001fd5b63150b7a0260e01b7bffffffffffffffffffffffffffffffffffffffffffffffffffffffff1916817bffffffffffffffffffffffffffffffffffffffffffffffffffffffff191614915050612051565b600190505b949350505050565b600073ffffffffffffffffffffffffffffffffffffffff168273ffffffffffffffffffffffffffffffffffffffff1614156120c9576040517f08c379a00000000000000000000000000000000000000000000000000000000081526004016120c090612e2b565b60405180910390fd5b6120d281611258565b15612112576040517f08c379a000000000000000000000000000000000000000000000000000000000815260040161210990612d2b565b60405180910390fd5b61211e60008383611e62565b6001600360008473ffffffffffffffffffffffffffffffffffffffff1673ffffffffffffffffffffffffffffffffffffffff168152602001908152602001600020600082825461216e9190612ff4565b92505081905550816002600083815260200190815260200160002060006101000a81548173ffffffffffffffffffffffffffffffffffffffff021916908373ffffffffffffffffffffffffffffffffffffffff160217905550808273ffffffffffffffffffffffffffffffffffffffff16600073ffffffffffffffffffffffffffffffffffffffff167fddf252ad1be2c89b69c2b068fc378daa952ba7f163c4a11628f55a4df523b3ef60405160405180910390a45050565b600080823b905060008111915050919050565b828054612246906131bf565b90600052602060002090601f01602090048101928261226857600085556122af565b82601f1061228157805160ff19168380011785556122af565b828001600101855582156122af579182015b828111156122ae578251825591602001919060010190612293565b5b5090506122bc91906122c0565b5090565b5b808211156122d95760008160009055506001016122c1565b5090565b60006122f06122eb84612f6b565b612f46565b90508281526020810184848401111561230857600080fd5b61231384828561317d565b509392505050565b60008135905061232a81613a16565b92915050565b60008135905061233f81613a2d565b92915050565b60008135905061235481613a44565b92915050565b60008151905061236981613a44565b92915050565b600082601f83011261238057600080fd5b81356123908482602086016122dd565b91505092915050565b6000813590506123a881613a5b565b92915050565b6000602082840312156123c057600080fd5b60006123ce8482850161231b565b91505092915050565b600080604083850312156123ea57600080fd5b60006123f88582860161231b565b92505060206124098582860161231b565b9150509250929050565b60008060006060848603121561242857600080fd5b60006124368682870161231b565b93505060206124478682870161231b565b925050604061245886828701612399565b9150509250925092565b6000806000806080858703121561247857600080fd5b60006124868782880161231b565b94505060206124978782880161231b565b93505060406124a887828801612399565b925050606085013567ffffffffffffffff8111156124c557600080fd5b6124d18782880161236f565b91505092959194509250565b600080604083850312156124f057600080fd5b60006124fe8582860161231b565b925050602061250f85828601612330565b9150509250929050565b6000806040838503121561252c57600080fd5b600061253a8582860161231b565b925050602061254b85828601612399565b9150509250929050565b60006020828403121561256757600080fd5b600061257584828501612345565b91505092915050565b60006020828403121561259057600080fd5b600061259e8482850161235a565b91505092915050565b6000602082840312156125b957600080fd5b60006125c784828501612399565b91505092915050565b6125d981613109565b82525050565b6125e88161311b565b82525050565b60006125f982612fb1565b6126038185612fc7565b935061261381856020860161318c565b61261c81613358565b840191505092915050565b600061263282612fbc565b61263c8185612fd8565b935061264c81856020860161318c565b61265581613358565b840191505092915050565b600061266b82612fbc565b6126758185612fe9565b935061268581856020860161318c565b80840191505092915050565b6000815461269e816131bf565b6126a88186612fe9565b945060018216600081146126c357600181146126d457612707565b60ff19831686528186019350612707565b6126dd85612f9c565b60005b838110156126ff578154818901526001820191506020810190506126e0565b838801955050505b50505092915050565b600061271d600a83612fe9565b915061272882613369565b600a82019050919050565b6000612740603283612fd8565b915061274b82613392565b604082019050919050565b6000612763600a83612fe9565b915061276e826133e1565b600a82019050919050565b6000612786601c83612fd8565b91506127918261340a565b602082019050919050565b60006127a9602483612fd8565b91506127b482613433565b604082019050919050565b60006127cc601983612fd8565b91506127d782613482565b602082019050919050565b60006127ef606383612fe9565b91506127fa826134ab565b606382019050919050565b6000612812602c83612fd8565b915061281d82613546565b604082019050919050565b6000612835600d83612fe9565b915061284082613595565b600d82019050919050565b6000612858603883612fd8565b9150612863826135be565b604082019050919050565b600061287b602a83612fd8565b91506128868261360d565b604082019050919050565b600061289e602983612fd8565b91506128a98261365c565b604082019050919050565b60006128c1602e83612fd8565b91506128cc826136ab565b604082019050919050565b60006128e4600283612fe9565b91506128ef826136fa565b600282019050919050565b6000612907602083612fd8565b915061291282613723565b602082019050919050565b600061292a603183612fd8565b91506129358261374c565b604082019050919050565b600061294d602c83612fd8565b91506129588261379b565b604082019050919050565b6000612970602983612fd8565b915061297b826137ea565b604082019050919050565b6000612993602f83612fd8565b915061299e82613839565b604082019050919050565b60006129b6600a83612fe9565b91506129c182613888565b600a82019050919050565b60006129d9602183612fd8565b91506129e4826138b1565b604082019050919050565b60006129fc605483612fd8565b9150612a0782613900565b606082019050919050565b6000612a1f601d83612fe9565b9150612a2a82613975565b601d82019050919050565b6000612a42603183612fd8565b9150612a4d8261399e565b604082019050919050565b6000612a65600b83612fe9565b9150612a70826139ed565b600b82019050919050565b612a8481613173565b82525050565b6000612a968284612660565b915081905092915050565b6000612aad8285612660565b9150612ab98284612660565b91508190509392505050565b6000612ad18286612660565b9150612add8285612660565b9150612ae98284612660565b9150819050949350505050565b6000612b028285612691565b9150612b0e8284612660565b9150612b1982612828565b91508190509392505050565b6000612b3082612710565b9150612b3c8284612660565b915081905092915050565b6000612b5282612756565b9150612b5e8284612660565b915081905092915050565b6000612b74826129a9565b9150612b808285612660565b9150612b8b826127e2565b9150612b978284612660565b9150612ba2826128d7565b91508190509392505050565b6000612bb982612a12565b9150612bc58284612660565b915081905092915050565b6000612bdb82612a58565b9150612be78284612660565b915081905092915050565b6000602082019050612c0760008301846125d0565b92915050565b6000608082019050612c2260008301876125d0565b612c2f60208301866125d0565b612c3c6040830185612a7b565b8181036060830152612c4e81846125ee565b905095945050505050565b6000606082019050612c6e60008301866125d0565b612c7b6020830185612a7b565b612c886040830184612a7b565b949350505050565b6000602082019050612ca560008301846125df565b92915050565b60006020820190508181036000830152612cc58184612627565b905092915050565b60006060820190508181036000830152612ce78186612627565b9050612cf66020830185612a7b565b612d0360408301846125d0565b949350505050565b60006020820190508181036000830152612d2481612733565b9050919050565b60006020820190508181036000830152612d4481612779565b9050919050565b60006020820190508181036000830152612d648161279c565b9050919050565b60006020820190508181036000830152612d84816127bf565b9050919050565b60006020820190508181036000830152612da481612805565b9050919050565b60006020820190508181036000830152612dc48161284b565b9050919050565b60006020820190508181036000830152612de48161286e565b9050919050565b60006020820190508181036000830152612e0481612891565b9050919050565b60006020820190508181036000830152612e24816128b4565b9050919050565b60006020820190508181036000830152612e44816128fa565b9050919050565b60006020820190508181036000830152612e648161291d565b9050919050565b60006020820190508181036000830152612e8481612940565b9050919050565b60006020820190508181036000830152612ea481612963565b9050919050565b60006020820190508181036000830152612ec481612986565b9050919050565b60006020820190508181036000830152612ee4816129cc565b9050919050565b60006020820190508181036000830152612f04816129ef565b9050919050565b60006020820190508181036000830152612f2481612a35565b9050919050565b6000602082019050612f406000830184612a7b565b92915050565b6000612f50612f61565b9050612f5c82826131f1565b919050565b6000604051905090565b600067ffffffffffffffff821115612f8657612f85613329565b5b612f8f82613358565b9050602081019050919050565b60008190508160005260206000209050919050565b600081519050919050565b600081519050919050565b600082825260208201905092915050565b600082825260208201905092915050565b600081905092915050565b6000612fff82613173565b915061300a83613173565b9250827fffffffffffffffffffffffffffffffffffffffffffffffffffffffffffffffff0382111561303f5761303e61329c565b5b828201905092915050565b600061305582613173565b915061306083613173565b9250826130705761306f6132cb565b5b828204905092915050565b600061308682613173565b915061309183613173565b9250817fffffffffffffffffffffffffffffffffffffffffffffffffffffffffffffffff04831182151516156130ca576130c961329c565b5b828202905092915050565b60006130e082613173565b91506130eb83613173565b9250828210156130fe576130fd61329c565b5b828203905092915050565b600061311482613153565b9050919050565b60008115159050919050565b60007fffffffff0000000000000000000000000000000000000000000000000000000082169050919050565b600073ffffffffffffffffffffffffffffffffffffffff82169050919050565b6000819050919050565b82818337600083830152505050565b60005b838110156131aa57808201518184015260208101905061318f565b838111156131b9576000848401525b50505050565b600060028204905060018216806131d757607f821691505b602082108114156131eb576131ea6132fa565b5b50919050565b6131fa82613358565b810181811067ffffffffffffffff8211171561321957613218613329565b5b80604052505050565b600061322d82613173565b91507fffffffffffffffffffffffffffffffffffffffffffffffffffffffffffffffff8214156132605761325f61329c565b5b600182019050919050565b600061327682613173565b915061328183613173565b925082613291576132906132cb565b5b828206905092915050565b7f4e487b7100000000000000000000000000000000000000000000000000000000600052601160045260246000fd5b7f4e487b7100000000000000000000000000000000000000000000000000000000600052601260045260246000fd5b7f4e487b7100000000000000000000000000000000000000000000000000000000600052602260045260246000fd5b7f4e487b7100000000000000000000000000000000000000000000000000000000600052604160045260246000fd5b6000601f19601f8301169050919050565b7f464952535420574f524400000000000000000000000000000000000000000000600082015250565b7f4552433732313a207472616e7366657220746f206e6f6e20455243373231526560008201527f63656976657220696d706c656d656e7465720000000000000000000000000000602082015250565b7f544849524420574f524400000000000000000000000000000000000000000000600082015250565b7f4552433732313a20746f6b656e20616c7265616479206d696e74656400000000600082015250565b7f4552433732313a207472616e7366657220746f20746865207a65726f2061646460008201527f7265737300000000000000000000000000000000000000000000000000000000602082015250565b7f4552433732313a20617070726f766520746f2063616c6c657200000000000000600082015250565b7f222c20226465736372697074696f6e223a20224120686967686c79206163636c60008201527f61696d656420636f6c6c656374696f6e206f6620737175617265732e222c202260208201527f696d616765223a2022646174613a696d6167652f7376672b786d6c3b6261736560408201527f36342c0000000000000000000000000000000000000000000000000000000000606082015250565b7f4552433732313a206f70657261746f7220717565727920666f72206e6f6e657860008201527f697374656e7420746f6b656e0000000000000000000000000000000000000000602082015250565b7f3c2f746578743e3c2f7376673e00000000000000000000000000000000000000600082015250565b7f4552433732313a20617070726f76652063616c6c6572206973206e6f74206f7760008201527f6e6572206e6f7220617070726f76656420666f7220616c6c0000000000000000602082015250565b7f4552433732313a2062616c616e636520717565727920666f7220746865207a6560008201527f726f206164647265737300000000000000000000000000000000000000000000602082015250565b7f4552433732313a206f776e657220717565727920666f72206e6f6e657869737460008201527f656e7420746f6b656e0000000000000000000000000000000000000000000000602082015250565b7f45524337323155524953746f726167653a2055524920736574206f66206e6f6e60008201527f6578697374656e7420746f6b656e000000000000000000000000000000000000602082015250565b7f227d000000000000000000000000000000000000000000000000000000000000600082015250565b7f4552433732313a206d696e7420746f20746865207a65726f2061646472657373600082015250565b7f45524337323155524953746f726167653a2055524920717565727920666f722060008201527f6e6f6e6578697374656e7420746f6b656e000000000000000000000000000000602082015250565b7f4552433732313a20617070726f76656420717565727920666f72206e6f6e657860008201527f697374656e7420746f6b656e0000000000000000000000000000000000000000602082015250565b7f4552433732313a207472616e73666572206f6620746f6b656e2074686174206960008201527f73206e6f74206f776e0000000000000000000000000000000000000000000000602082015250565b7f4552433732314d657461646174613a2055524920717565727920666f72206e6f60008201527f6e6578697374656e7420746f6b656e0000000000000000000000000000000000602082015250565b7f7b226e616d65223a202200000000000000000000000000000000000000000000600082015250565b7f4552433732313a20617070726f76616c20746f2063757272656e74206f776e6560008201527f7200000000000000000000000000000000000000000000000000000000000000602082015250565b7f54686520746f74616c20616d6f756e74206f66204e46547320616c6c6f77656460008201527f20666f72207468697320636f6c6c656374696f6e2068617320616c726561647960208201527f206265656e206d696e7465642c20736f72727921000000000000000000000000604082015250565b7f646174613a6170706c69636174696f6e2f6a736f6e3b6261736536342c000000600082015250565b7f4552433732313a207472616e736665722063616c6c6572206973206e6f74206f60008201527f776e6572206e6f7220617070726f766564000000000000000000000000000000602082015250565b7f5345434f4e4420574f5244000000000000000000000000000000000000000000600082015250565b613a1f81613109565b8114613a2a57600080fd5b50565b613a368161311b565b8114613a4157600080fd5b50565b613a4d81613127565b8114613a5857600080fd5b50565b613a6481613173565b8114613a6f57600080fd5b5056fe416e204e465420772f20494420257320686173206265656e206d696e74656420746f2025734142434445464748494a4b4c4d4e4f505152535455565758595a6162636465666768696a6b6c6d6e6f707172737475767778797a303132333435363738392b2fa264697066735822122021eeba652cb2cdb774b4458c9ae230cc7fa6c1f1f0310657ebb7f675cf96a43c64736f6c634300080400333c73766720786d6c6e733d27687474703a2f2f7777772e77332e6f72672f323030302f73766727207072657365727665417370656374526174696f3d27784d696e594d696e206d656574272076696577426f783d273020302033353020333530273e3c7374796c653e2e62617365207b2066696c6c3a2077686974653b20666f6e742d66616d696c793a2073657269663b20666f6e742d73697a653a20323470783b207d3c2f7374796c653e3c726563742077696474683d273130302527206865696768743d2731303025272066696c6c3d27626c61636b27202f3e3c7465787420783d273530252720793d273530252720636c6173733d27626173652720646f6d696e616e742d626173656c696e653d276d6964646c652720746578742d616e63686f723d276d6964646c65273e",
  "linkReferences": {},
  "deployedLinkReferences": {}
}